{"txid": "f3771bf9d0d33ab8849ad54fae75b83f876cd39cd6af1d23ec9555cd86c46e08", "raw": "0100000001775e87331f56337af7eeb79fb08d89e5ab96ebb2f0df5fee84fe8eb1cec9c07c000000006b4830450221008306912aea62accb4247a714909ec3fc8eea944eab28230f981c7844dd7c822c02204589dd28e6c255caa5c230225c1d85eb0ffd5d5aab0fe3d1977f772b57c101df012102c418c47c704ddc6e8fb368b8d0e3687c4a3f35cd158948475df50ac412711dc5ffffffff016b900100000000001976a9144a05229ff17c20452ff1a0edcb613854cc63e92f88ac00000000", "address": "mnGLT42un82fQGtWpC7K6pppWcjSf2wpi6", "amount": 102507, "fee": 300, "inputs": 1, "outputs": 1, "network": "testnet", "explorer": "https://blockstream.info/testnet/tx/f3771bf9d0d33ab8849ad54fae75b83f876cd39cd6af1d23ec9555cd86c46e08", "segments": [{"hex": "01000000", "kind": "version", "label": "version", "desc": "Transaction format version (1)."}, {"hex": "01", "kind": "count", "label": "input count", "desc": "1 input \u2014 a CompactSize count."}, {"hex": "775e87331f56337af7eeb79fb08d89e5ab96ebb2f0df5fee84fe8eb1cec9c07c", "kind": "prevtx", "label": "prev txid", "desc": "The funding output's transaction id, byte-reversed on the wire."}, {"hex": "00000000", "kind": "prevtx", "label": "prev index", "desc": "Which output of it we spend (#0)."}, {"hex": "6b", "kind": "count", "label": "scriptSig len", "desc": "107 bytes of unlocking script follow."}, {"hex": "4830450221008306912aea62accb4247a714909ec3fc8eea944eab28230f981c7844dd7c822c02204589dd28e6c255caa5c230225c1d85eb0ffd5d5aab0fe3d1977f772b57c101df01", "kind": "sig", "label": "signature", "desc": "A push of the DER-encoded ECDSA signature + SIGHASH_ALL byte \u2014 our proof of ownership."}, {"hex": "2102c418c47c704ddc6e8fb368b8d0e3687c4a3f35cd158948475df50ac412711dc5", "kind": "pubkey", "label": "public key", "desc": "A push of the compressed public key the funds were locked to."}, {"hex": "ffffffff", "kind": "seq", "label": "sequence", "desc": "0xffffffff \u2014 no relative timelock."}, {"hex": "01", "kind": "count", "label": "output count", "desc": "1 output."}, {"hex": "6b90010000000000", "kind": "value", "label": "amount", "desc": "102,507 satoshis (little-endian) \u2014 the input minus the 300-sat fee."}, {"hex": "19", "kind": "count", "label": "scriptPubKey len", "desc": "25 bytes of locking script."}, {"hex": "76a9144a05229ff17c20452ff1a0edcb613854cc63e92f88ac", "kind": "script", "label": "scriptPubKey", "desc": "OP_DUP OP_HASH160 <hash160> OP_EQUALVERIFY OP_CHECKSIG \u2014 a P2PKH lock."}, {"hex": "00000000", "kind": "locktime", "label": "locktime", "desc": "0 \u2014 valid immediately."}]}